{"abi":[{"type":"constructor","inputs":[{"name":"_ficha","type":"address","internalType":"address"}],"stateMutability":"nonpayable"},{"type":"function","name":"ADDRESS_FICHA","inputs":[],"outputs":[{"name":"","type":"address","internalType":"address"}],"stateMutability":"view"},{"type":"function","name":"getASpecificMessage","inputs":[{"name":"_index","type":"uint256","internalType":"uint256"}],"outputs":[{"name":"","type":"tuple","internalType":"struct GuessBook.Metadata","components":[{"name":"user","type":"address","internalType":"address"},{"name":"text","type":"string","internalType":"string"},{"name":"date","type":"uint256","internalType":"uint256"}]}],"stateMutability":"view"},{"type":"function","name":"getAmountOfMessages","inputs":[],"outputs":[{"name":"","type":"uint256","internalType":"uint256"}],"stateMutability":"view"},{"type":"function","name":"getCounterOfMessagesSent","inputs":[],"outputs":[{"name":"","type":"uint256","internalType":"uint256"}],"stateMutability":"view"},{"type":"function","name":"getFullMessages","inputs":[],"outputs":[{"name":"","type":"tuple[]","internalType":"struct GuessBook.Metadata[]","components":[{"name":"user","type":"address","internalType":"address"},{"name":"text","type":"string","internalType":"string"},{"name":"date","type":"uint256","internalType":"uint256"}]}],"stateMutability":"view"},{"type":"function","name":"registerMessage","inputs":[{"name":"_text","type":"string","internalType":"string"}],"outputs":[],"stateMutability":"nonpayable"}],"bytecode":{"object":"0x60a060405234801561001057600080fd5b50604051610a03380380610a0383398101604081905261002f91610040565b6001600160a01b0316608052610070565b60006020828403121561005257600080fd5b81516001600160a01b038116811461006957600080fd5b9392505050565b60805161096b61009860003960008181606c015281816101340152610309015261096b6000f3fe608060405234801561001057600080fd5b50600436106100625760003560e01c806329442c59146100675780633b25839e146100ab5780633c223aa1146100c05780639518004c146100d557806395d0f726146100e7578063e89b2641146100fc575b600080fd5b61008e7f000000000000000000000000000000000000000000000000000000000000000081565b6040516001600160a01b0390911681526020015b60405180910390f35b6100be6100b93660046105bd565b61011c565b005b6100c8610383565b6040516100a291906106dc565b6000545b6040519081526020016100a2565b336000908152600160205260409020546100d9565b61010f61010a366004610740565b610494565b6040516100a29190610759565b6040516370a0823160e01b81523360048201526001907f00000000000000000000000000000000000000000000000000000000000000006001600160a01b0316906370a0823190602401602060405180830381865afa158015610183573d6000803e3d6000fd5b505050506040513d601f19601f820116820180604052508101906101a79190610773565b10156102155760405162461bcd60e51b815260206004820152603360248201527f596f75206e65656420746f2068617665206174206c65617374203120464943486044820152724120746f2073656e642061206d65737361676560681b606482015260840160405180910390fd5b604080516060810182523381526020810183815242928201929092526000805460018101825590805281517f290decd9548b62a8d60345a988386fc84ba6bc95484008f6362f93160ef3e563600390920291820180546001600160a01b0319166001600160a01b0390921691909117815592519192839290917f290decd9548b62a8d60345a988386fc84ba6bc95484008f6362f93160ef3e56401906102bb9082610816565b5060409182015160029091015533600090815260016020529081208054916102e2836108d6565b90915550506040516323b872dd60e01b8152336004820152306024820152600160448201527f00000000000000000000000000000000000000000000000000000000000000006001600160a01b0316906323b872dd906064016020604051808303816000875af115801561035a573d6000803e3d6000fd5b505050506040513d601f19601f8201168201806040525081019061037e91906108fd565b505050565b60606000805480602002602001604051908101604052809291908181526020016000905b8282101561048b57600084815260209081902060408051606081019091526003850290910180546001600160a01b0316825260018101805492939192918401916103f09061078c565b80601f016020809104026020016040519081016040528092919081815260200182805461041c9061078c565b80156104695780601f1061043e57610100808354040283529160200191610469565b820191906000526020600020905b81548152906001019060200180831161044c57829003601f168201915b50505050508152602001600282015481525050815260200190600101906103a7565b50505050905090565b6104c1604051806060016040528060006001600160a01b0316815260200160608152602001600081525090565b600082815481106104d4576104d461091f565b6000918252602091829020604080516060810190915260039092020180546001600160a01b0316825260018101805492939192918401916105149061078c565b80601f01602080910402602001604051908101604052809291908181526020018280546105409061078c565b801561058d5780601f106105625761010080835404028352916020019161058d565b820191906000526020600020905b81548152906001019060200180831161057057829003601f168201915b505050505081526020016002820154815250509050919050565b634e487b7160e01b600052604160045260246000fd5b6000602082840312156105cf57600080fd5b813567ffffffffffffffff808211156105e757600080fd5b818401915084601f8301126105fb57600080fd5b81358181111561060d5761060d6105a7565b604051601f8201601f19908116603f01168101908382118183101715610635576106356105a7565b8160405282815287602084870101111561064e57600080fd5b826020860160208301376000928101602001929092525095945050505050565b60018060a01b038151168252600060208083015160606020860152805180606087015260005b818110156106b057828101840151878201608001528301610694565b50600060808288010152604085015160408701526080601f19601f830116870101935050505092915050565b600060208083016020845280855180835260408601915060408160051b87010192506020870160005b8281101561073357603f1988860301845261072185835161066e565b94509285019290850190600101610705565b5092979650505050505050565b60006020828403121561075257600080fd5b5035919050565b60208152600061076c602083018461066e565b9392505050565b60006020828403121561078557600080fd5b5051919050565b600181811c908216806107a057607f821691505b6020821081036107c057634e487b7160e01b600052602260045260246000fd5b50919050565b601f82111561037e576000816000526020600020601f850160051c810160208610156107ef5750805b601f850160051c820191505b8181101561080e578281556001016107fb565b505050505050565b815167ffffffffffffffff811115610830576108306105a7565b6108448161083e845461078c565b846107c6565b602080601f83116001811461087957600084156108615750858301515b600019600386901b1c1916600185901b17855561080e565b600085815260208120601f198616915b828110156108a857888601518255948401946001909101908401610889565b50858210156108c65787850151600019600388901b60f8161c191681555b5050505050600190811b01905550565b6000600182016108f657634e487b7160e01b600052601160045260246000fd5b5060010190565b60006020828403121561090f57600080fd5b8151801515811461076c57600080fd5b634e487b7160e01b600052603260045260246000fdfea2646970667358221220bf73569b7b207a7dc2cd20126c45c0bca81b87306f171158f20cc995f339c4a164736f6c63430008170033","linkReferences":{}},"methodIdentifiers":{"ADDRESS_FICHA()":"29442c59","getASpecificMessage(uint256)":"e89b2641","getAmountOfMessages()":"9518004c","getCounterOfMessagesSent()":"95d0f726","getFullMessages()":"3c223aa1","registerMessage(string)":"3b25839e"},"id":27}